:100000000C9472000C9493000C9493000C94930045
:100010000C9493000C9493000C9493000C94930014
:100020000C9493000C9493000C9493000C94930004
:100030000C9493000C9493000C9493000C949300F4
:100040000C9493000C9493000C9493000C949300E4
:100050000C9493000C9493000C9493000C949300D4
:100060000C9493000C9495000C9493000C94C7008E
:100070000C9493000C9493000C9493000C949300B4
:100080000C9493000C9493000C9493000C949300A4
:100090000C9493000C9493000C9493000C94930094
:1000A0000C9493000C9493000C9493000C94930084
:1000B0000C9493000C9493000C9493000C94930074
:1000C0000C9493000C9493000C9493000C94930064
:1000D0000C9493000C9493000C9493000C94930054
:1000E0000C94930011241FBECFEFD1E2DEBFCDBF31
:1000F00000E00CBF12E0A0E0B2E0E0E8F4E000E0D5
:100100000BBF02C007900D92AC30B107D9F723E0C6
:10011000ACE0B2E001C01D92AF30B207E1F70E943F
:10012000C8000C943E020C9400001F921FB61F9250
:1001300011248F938BB78F93EF93FF9380910A03D2
:100140008E3F18F480910602811110920A0380916B
:10015000C600E0910A03F0E0E45FFD4F8083E09188
:100160000A03F0E0E45FFD4F8081882339F01092AC
:10017000060280910A038F5F80930A03FF91EF913B
:100180008F918BBF8F911F901FBE1F901895189550
:1001900082B182B9789482E08093C00080E180933C
:1001A000C4001092C50086E08093C20078940F2EA0
:1001B000F1E4EF2EF02D00EC10E00F2EF6ECCF2E38
:1001C000D12CF02D0F2EF0E3FF2EF02D0CC0CD0121
:1001D0000E94AD01DFEF21EE84E0D150204080404D
:1001E000E1F700C00000E8E0F2E08E2DD8019C911C
:1001F00095FFFCCFE601888381918111F7CF82E0E2
:1002000090E00E941401DC0111961C921197FC01F0
:10021000F1929F2DE801888185FFFCCFE60198834C
:1002200091919111F7CFD3CF0F931F93CF93DF937A
:100230008230910510F482E090E0E0910D03F0919E
:100240000E0330E020E0B0E0A0E0309799F42115F3
:10025000310509F447C0281B390B24303105C0F59E
:100260008A819B816115710571F1FB019383828302
:10027000FE0111C040815181028113814817590745
:10028000F8F04817590799F4109761F012960C93FB
:10029000129713961C933296CF01DF91CF911F9145
:1002A0000F91089500930D0310930E03F4CF2115C1
:1002B000310519F04217530718F49A01BD01EF01F7
:1002C000DF01F801C2CF90930E0380930D03D0CFCE
:1002D000FE01E20FF31F819391932250310939837C
:1002E0002883DACF20910B0330910C03232B41F4A8
:1002F000209102023091030230930C0320930B03F0
:1003000020910002309101022115310541F42DB7F1
:100310003EB74091040250910502241B350BE09139
:100320000B03F0910C03E217F307A0F42E1B3F0B15
:100330002817390778F0AC014E5F5F4F2417350757
:1003400048F04E0F5F1F50930C0340930B038193B3
:100350009193A2CFF0E0E0E09FCFCF93DF9300979F
:10036000E9F0FC01329713821282C0910D03D09103
:100370000E03DE0130E020E02097A1F420813181DE
:10038000820F931F20910B0330910C03281739071C
:1003900009F067C0F0930C03E0930B03DF91CF915A
:1003A0000895DA01AE17BF0708F040C012964D91CC
:1003B0005C9113979D014115510599F7D901139649
:1003C000FC93EE9312974D915D91A40FB51FEA1720
:1003D000FB0779F4808191810296840F951FD901E2
:1003E00011969C938E938281938113969C938E9306
:1003F0001297B0E0A0E08A819B810097B9F5FE01D9
:1004000081919191E80FF91F80910B0390910C035A
:100410008E179F0719F6109761F510920E03109230
:100420000D03D0930C03C0930B03B8CFB383A28307
:1004300040815181840F951FA817B90771F44E5F51
:100440005F4F8D919C911197480F591F51834083A5
:1004500012968D919C91938382832115310509F029
:10046000ADCFF0930E03E0930D0398CFDE01EC01C6
:10047000C2CF13961C921E921297D3CFF894FFCF3F
:0C04800000000F0320000141414100007A
:00000001FF
