:100000000C9472000C9493000C9493000C94930045
:100010000C9493000C9493000C9493000C94930014
:100020000C9493000C9493000C9493000C94930004
:100030000C9493000C94B9000C94B8000C94B70085
:100040000C9493000C94BC000C94BB000C94930093
:100050000C94BA000C94BF000C94BE000C94BD002C
:100060000C9493000C949C000C9493000C94B60098
:100070000C9493000C9493000C9493000C949300B4
:100080000C9493000C9493000C9493000C949300A4
:100090000C9493000C9493000C9493000C94930094
:1000A0000C9493000C9493000C9493000C94930084
:1000B0000C9493000C9493000C9493000C94930074
:1000C0000C9493000C9493000C9493000C94930064
:1000D0000C9493000C9493000C9493000C94930054
:1000E0000C94930011241FBECFEFD1E2DEBFCDBF31
:1000F00000E00CBF12E0A0E0B2E0E0EEF1E000E0D2
:100100000BBF02C007900D92A630B107D9F722E0CD
:10011000A6E0B2E001C01D92A730B207E1F70E944D
:10012000C0000C94EE000C9400009091C00095FF6C
:10013000FCCF8093C60008951F921FB61F92112412
:100140008F93809100028111109206028091C60067
:10015000882339F080910602109200028F5F80930D
:1001600006028F911F901FBE1F9018951895189525
:100170001895189518951895189518951895189517
:1001800082E08093C00080E18093C4001092C5009B
:100190008091C10080698093C1008091C100886412
:1001A0008093C10086E08093C2007894C1E0D2E0E1
:1001B0008991882319F00E949500FACF8AE00E9465
:1001C00095008DE00E9495002FEF81EE94E0215084
:1001D00080409040E1F700C00000E8CFF894FFCFE6
:0601E00001414141000055
:00000001FF
