:100000000C9472000C9493000C9493000C94930045
:100010000C9493000C9493000C9493000C94930014
:100020000C9493000C9493000C9493000C94930004
:100030000C9493000C945C010C945B010C94930061
:100040000C9493000C945E010C945D010C9493004D
:100050000C9493000C9460010C945F010C94930039
:100060000C9493000C9428010C9493000C945A0166
:100070000C9493000C94EB000C9493000C9493005C
:100080000C9493000C9493000C9493000C949300A4
:100090000C9493000C9493000C9493000C94930094
:1000A0000C9493000C9493000C9493000C94930084
:1000B0000C9493000C9493000C9493000C94930074
:1000C0000C9493000C9493000C9493000C94930064
:1000D0000C9493000C9493000C9493000C94930054
:1000E0000C94930011241FBECFEFD1E2DEBFCDBF31
:1000F00000E00CBF12E0A0E0B2E0EAE1F5E000E0D1
:100100000BBF02C007900D92AC30B107D9F723E0C6
:10011000ACE0B2E001C01D92A133B207E1F70E944A
:100120009D000C948B020C940000E0ECF0E09081B8
:1001300095FFFDCF8093C600089590E080E0FC011C
:10014000E15DFD4F108201968E3F9105C1F782E07F
:100150008093C00080E18093C4001092C500E1EC60
:10016000F0E080818069808380818864808386E07C
:100170008093C20078940F2EF1E4EF2EF02D0F2E15
:10018000F0E3FF2EF02D0FC0C8010E94FA018DE0B0
:100190000E949500FFEF21EE84E0F1502040804066
:1001A000E1F700C00000C8E0D2E08E2D0E9495006B
:1001B00089918111FBCF82E090E00E9461018C0166
:1001C000FC011182EC01F9928F2D0E94950089911A
:1001D0008111FBCFD9CF1F921FB61F9211248F938D
:1001E0008BB78F939F93EF93FF93809178009091BB
:1001F0007900E0912E02F0E0EE0FFF1FE25FFD4F6D
:1002000091838083E0912E02F0E0EE0FFF1FE25F0A
:10021000FD4F8081918194609183808380912E0233
:100220008F5F80932E0280912E02803110F0109209
:100230002E0280912E02807180937C00FF91EF91BD
:100240009F918F918BBF8F911F901FBE1F9018950C
:100250001F921FB61F9211248F938BB78F93EF932A
:10026000FF9380910D028E3F18F48091000281115E
:1002700010920D028091C600E0910D02F0E0E15D68
:10028000FD4F8083E0910D02F0E0E15DFD4F808144
:10029000882339F01092000280910D028F5F8093C5
:1002A0000D02FF91EF918F918BBF8F911F901FBE19
:1002B0001F901895189518951895189518951895D4
:1002C00018950F931F93CF93DF938230910510F40D
:1002D00082E090E0E0912F03F091300330E020E0E5
:1002E000B0E0A0E0309799F42115310509F447C03A
:1002F000281B390B24303105C0F58A819B8161159B
:10030000710571F1FB0193838283FE0111C040816D
:1003100051810281138148175907F8F0481759078E
:1003200099F4109761F012960C93129713961C9300
:100330003296CF01DF91CF911F910F9108950093D5
:100340002F0310933003F4CF2115310519F0421714
:10035000530718F49A01BD01EF01DF01F801C2CF84
:100360009093300380932F03D0CFFE01E20FF31F51
:10037000819391932250310939832883DACF2091D8
:100380002D0330912E03232B41F420910302309151
:10039000040230932E0320932D032091010230910B
:1003A00002022115310541F42DB73EB740910502F7
:1003B00050910602241B350BE0912D03F0912E0382
:1003C000E217F307A0F42E1B3F0B2817390778F02C
:1003D000AC014E5F5F4F2417350748F04E0F5F1F8B
:1003E00050932E0340932D0381939193A2CFF0E07D
:1003F000E0E09FCFCF93DF930097E9F0FC013297C5
:1004000013821282C0912F03D0913003DE0130E0BD
:1004100020E02097A1F420813181820F931F209149
:100420002D0330912E032817390709F067C0F09388
:100430002E03E0932D03DF91CF910895DA01AE17DB
:10044000BF0708F040C012964D915C9113979D0133
:100450004115510599F7D9011396FC93EE93129724
:100460004D915D91A40FB51FEA17FB0779F48081C8
:1004700091810296840F951FD90111969C938E93BA
:100480008281938113969C938E931297B0E0A0E0A3
:100490008A819B810097B9F5FE0181919191E80FC6
:1004A000F91F80912D0390912E038E179F0719F647
:1004B000109761F51092300310922F03D0932E0302
:1004C000C0932D03B8CFB383A28340815181840FA1
:1004D000951FA817B90771F44E5F5F4F8D919C91DE
:1004E0001197480F591F5183408312968D919C910B
:1004F000938382832115310509F0ADCFF09330034A
:10050000E0932F0398CFDE01EC01C2CF13961C922B
:0A0510001E921297D3CFF894FFCF8C
:0C051A00010000310320004141410000BD
:00000001FF
