:100000000C9472000C9493000C9493000C94930045
:100010000C9493000C9493000C9493000C94930014
:100020000C9493000C9493000C9493000C94930004
:100030000C9493000C9493000C9493000C949300F4
:100040000C9493000C9493000C9493000C949300E4
:100050000C9493000C9493000C9493000C949300D4
:100060000C9493000C9495000C9493000C94C7008E
:100070000C9493000C9493000C9493000C949300B4
:100080000C9493000C9493000C9493000C949300A4
:100090000C9493000C9493000C9493000C94930094
:1000A0000C9493000C9493000C9493000C94930084
:1000B0000C9493000C9493000C9493000C94930074
:1000C0000C9493000C9493000C9493000C94930064
:1000D0000C9493000C9493000C9493000C94930054
:1000E0000C94930011241FBECFEFD1E2DEBFCDBF31
:1000F00000E00CBF12E0A0E0B2E0E4EFF4E000E0CA
:100100000BBF02C007900D92AC30B107D9F723E0C6
:10011000ACE0B2E001C01D92A131B207E1F70E944C
:10012000C8000C9478020C9400001F921FB61F9216
:1001300011248F938BB78F93EF93FF9380910C03D0
:100140008E3F18F480910602811110920C03809169
:10015000C600E0910C03F0E0E25FFD4F8083E09188
:100160000C03F0E0E25FFD4F8081882339F01092AC
:10017000060280910C038F5F80930C03FF91EF9137
:100180008F918BBF8F911F901FBE1F901895189550
:1001900089E090E00E944E0190930D0280930C0242
:1001A000DC01ED91FC910480F581E02D1995E09141
:1001B0000C02F0910D02108688E090E00E944E0142
:1001C0007C01EC010881198101151105C9F08A81B2
:1001D000882399F06801CFEFC80FD0E0CC0FDD1F66
:1001E000C8010296C80FD91FF601819191916F0144
:1001F0000E94E701CC16DD06B9F7C8010E94E701AD
:10020000D70117961C921E92169782E08093C00029
:1002100080E18093C4001092C50086E08093C20004
:1002200078940F2EF1E4EF2EF02D00EC10E00F2E5D
:10023000F6ECCF2ED12CF02D0F2EF0E3FF2EF02D6B
:100240000CC0CD010E94E701DFEFE1EEF4E0D150F8
:10025000E040F040E1F700C00000E8E0F2E08E2D61
:10026000E801988195FFFCCFD6018C938191811193
:10027000F7CF82E090E00E944E01DC0111961C92C3
:100280001197FC01F1929F2DE801888185FFFCCF39
:10029000E601988391919111F7CFD3CF0F931F93DC
:1002A000CF93DF938230910510F482E090E0E091EB
:1002B0000F03F091100330E020E0B0E0A0E03097B1
:1002C00099F42115310509F447C0281B390B243056
:1002D0003105C0F58A819B816115710571F1FB01C2
:1002E00093838283FE0111C0408151810281138179
:1002F00048175907F8F04817590799F4109761F013
:1003000012960C93129713961C933296CF01DF919D
:10031000CF911F910F91089500930F031093100335
:10032000F4CF2115310519F04217530718F49A013B
:10033000BD01EF01DF01F801C2CF9093100380935C
:100340000F03D0CFFE01E20FF31F81939193225050
:10035000310939832883DACF20910D0330910E03C0
:10036000232B41F4209102023091030230930E03BB
:1003700020930D03209100023091010221153105D7
:1003800041F42DB73EB74091040250910502241B61
:10039000350BE0910D03F0910E03E217F307A0F483
:1003A0002E1B3F0B2817390778F0AC014E5F5F4FCB
:1003B0002417350748F04E0F5F1F50930E034093EC
:1003C0000D0381939193A2CFF0E0E0E09FCFCF9314
:1003D000DF930097E9F0FC01329713821282C091FB
:1003E0000F03D0911003DE0130E020E02097A1F44C
:1003F00020813181820F931F20910D0330910E03D4
:100400002817390709F067C0F0930E03E0930D0336
:10041000DF91CF910895DA01AE17BF0708F040C011
:1004200012964D915C9113979D014115510599F7D5
:10043000D9011396FC93EE9312974D915D91A40F01
:10044000B51FEA17FB0779F4808191810296840F2A
:10045000951FD90111969C938E9382819381139657
:100460009C938E931297B0E0A0E08A819B810097C5
:10047000B9F5FE0181919191E80FF91F80910D036B
:1004800090910E038E179F0719F6109761F5109241
:10049000100310920F03D0930E03C0930D03B8CF37
:1004A000B383A28340815181840F951FA817B90798
:1004B00071F44E5F5F4F8D919C911197480F591FBA
:1004C0005183408312968D919C9193838283211551
:1004D000310509F0ADCFF0931003E0930F0398CFEF
:1004E000DE01EC01C2CF13961C921E921297D3CF5D
:0404F000F894FFCFAE
:0C04F40000001103200001414141000004
:00000001FF
