:100000000C9472000C9493000C9493000C94930045
:100010000C9493000C9493000C9493000C94930014
:100020000C9493000C9493000C9493000C94930004
:100030000C9493000C9493000C9493000C949300F4
:100040000C9493000C9493000C9493000C949300E4
:100050000C9493000C9493000C9493000C949300D4
:100060000C9493000C94B2000C9493000C94E40054
:100070000C9493000C9493000C9493000C949300B4
:100080000C9493000C9493000C9493000C949300A4
:100090000C9493000C9493000C9493000C94930094
:1000A0000C9493000C9493000C9493000C94930084
:1000B0000C9493000C9493000C9493000C94930074
:1000C0000C9493000C9493000C9493000C94930064
:1000D0000C9493000C9493000C9493000C94930054
:1000E0000C94930011241FBECFEFD1E2DEBFCDBF31
:1000F00000E00CBF12E0A0E0B2E0E6E9F5E000E0CD
:100100000BBF02C007900D92AE30B107D9F723E0C4
:10011000AEE0B2E001C01D92AF3DB207E1F70E9430
:100120001D010C94C9020C9400009091C00095FF31
:1001300009C02091D8023091D902232B19F4809361
:10014000C60008952091D8023091D902A9014F5FCD
:100150005F4F5093D9024093D802205F3D4FF90181
:10016000808308951F921FB61F9211248F938BB71F
:100170008F93EF93FF938091DA038E3F18F4809171
:10018000060281111092DA038091C600E091DA0331
:10019000F0E0E452FD4F8083E091DA03F0E0E452B6
:1001A000FD4F8081882339F0109206028091DA0396
:1001B0008F5F8093DA03FF91EF918F918BBF8F91C7
:1001C0001F901FBE1F9018951F921FB61F921124DB
:1001D0002F932BB72F933F938F939F93EF93FF937F
:1001E0008091DA029091DB022091D8023091D902FD
:1001F00082179307C9F09C012F5F3F4F3093DB02BA
:100200002093DA02805F9D4FFC0180818093C600BD
:10021000FF91EF919F918F913F912F912BBF2F9144
:100220001F901FBE1F9018951092DB021092DA02E9
:100230001092D9021092D802EBCF8BE090E00E948E
:100240009F0190930F0280930E0221E0DC01139630
:100250002C931397ED91FC910280F381E02D199579
:1002600080910E0290910F02DC01ED91FC910190C2
:10027000F081E02D61E070E0199582B182B9789447
:10028000209100003091010021153105B9F1F0E015
:10029000E0E083819281891788F540910E025091A8
:1002A0000F0291E0980F9093030090E0880F991F40
:1002B000820F931FFC015183408390E080E0FC019A
:1002C000E452FD4F108201968E3F9105C1F782E006
:1002D0008093C00080E18093C4001092C500E1ECDF
:1002E000F0E080818069808380818864808386E0FB
:1002F0008093C200789411E40DE010C084E090E097
:100300009093070080930600D8CFFFEF21EE84E0A2
:10031000F15020408040E1F700C00000C8E0D2E08A
:10032000812F0E94950089918111FBCFCCE0D2E012
:10033000802F0E94950089918111FBCFE6CF0F930A
:100340001F93CF93DF938230910510F482E090E009
:10035000E091DD03F091DE0330E020E0B0E0A0E0CA
:10036000309799F42115310509F447C0281B390B42
:1003700024303105C0F58A819B816115710571F1C9
:10038000FB0193838283FE0111C040815181028170
:10039000138148175907F8F04817590799F410972F
:1003A00061F012960C93129713961C933296CF011C
:1003B000DF91CF911F910F9108950093DD0310936A
:1003C000DE03F4CF2115310519F04217530718F455
:1003D0009A01BD01EF01DF01F801C2CF9093DE0366
:1003E0008093DD03D0CFFE01E20FF31F8193919341
:1003F0002250310939832883DACF2091DB033091F1
:10040000DC03232B41F4209102023091030230934C
:10041000DC032093DB0320910002309101022115BF
:10042000310541F42DB73EB74091040250910502C9
:10043000241B350BE091DB03F091DC03E217F3079B
:10044000A0F42E1B3F0B2817390778F0AC014E5F44
:100450005F4F2417350748F04E0F5F1F5093DC03A2
:100460004093DB0381939193A2CFF0E0E0E09FCF34
:10047000CF93DF930097E9F0FC0132971382128249
:10048000C091DD03D091DE03DE0130E020E0209753
:10049000A1F420813181820F931F2091DB033091E1
:1004A000DC032817390709F067C0F093DC03E093F9
:1004B000DB03DF91CF910895DA01AE17BF0708F093
:1004C00040C012964D915C9113979D0141155105C5
:1004D00099F7D9011396FC93EE9312974D915D9184
:1004E000A40FB51FEA17FB0779F48081918102966A
:1004F000840F951FD90111969C938E9382819381CD
:1005000013969C938E931297B0E0A0E08A819B8112
:100510000097B9F5FE0181919191E80FF91F809143
:10052000DB039091DC038E179F0719F6109761F596
:100530001092DE031092DD03D093DC03C093DB0343
:10054000B8CFB383A28340815181840F951FA81730
:10055000B90771F44E5F5F4F8D919C911197480FD1
:10056000591F5183408312968D919C91938382836E
:100570002115310509F0ADCFF093DE03E093DD03E3
:1005800098CFDE01EC01C2CF13961C921E921297F7
:06059000D3CFF894FFCF69
:0E0596000000DF03200001414141000D0A007A
:00000001FF
