:100000000C9472000C9493000C9493000C94930045
:100010000C9493000C9493000C9493000C94930014
:100020000C9493000C9493000C9493000C94930004
:100030000C9493000C9493000C9493000C949300F4
:100040000C9493000C9493000C9493000C949300E4
:100050000C9493000C9493000C9493000C949300D4
:100060000C9493000C9495000C9493000C94C7008E
:100070000C9493000C9493000C9493000C949300B4
:100080000C9493000C9493000C9493000C949300A4
:100090000C9493000C9493000C9493000C94930094
:1000A0000C9493000C9493000C9493000C94930084
:1000B0000C9493000C9493000C9493000C94930074
:1000C0000C9493000C9493000C9493000C94930064
:1000D0000C9493000C9493000C9493000C94930054
:1000E0000C94930011241FBECFEFD1E2DEBFCDBF31
:1000F00000E00CBF12E0A0E0B2E0EEECF4E000E0C3
:100100000BBF02C007900D92AE30B107D9F723E0C4
:10011000AEE0B2E001C01D92A331B207E1F70E9448
:10012000C8000C9465020C9400001F921FB61F9229
:1001300011248F938BB78F93EF93FF9380910E03CE
:100140008E3F18F480910602811110920E03809167
:10015000C600E0910E03F0E0E05FFD4F8083E09188
:100160000E03F0E0E05FFD4F8081882339F01092AC
:10017000060280910E038F5F80930E03FF91EF9133
:100180008F918BBF8F911F901FBE1F901895189550
:100190008BE090E00E943B0190930F0280930E024F
:1001A00021E0DC0113962C931397ED91FC910190C3
:1001B000F081E02D1995E0910E02F0910F0281E09F
:1001C00090E09287818782B182B978942091000073
:1001D000309101002115310549F1F0E0E0E0838123
:1001E0009281891718F540910E0250910F0291E00B
:1001F000980F9093030090E0880F991F820F931F30
:10020000FC015183408382E08093C00080E18093B1
:10021000C4001092C50086E08093C200789421E467
:10022000C0ECD0E0A6ECB0E03DE010C084E090E08F
:100230009093070080930600E6CFFFEF41EE84E045
:10024000F15040408040E1F700C00000E8E0F2E0FB
:10025000822F988195FFFDCF8C9381918111F9CFE9
:10026000ECE0F2E0832F988195FFFDCF8C93819194
:100270008111F9CFE2CF0F931F93CF93DF93823099
:10028000910510F482E090E0E0911103F0911203E7
:1002900030E020E0B0E0A0E0309799F4211531057E
:1002A00009F447C0281B390B24303105C0F58A8179
:1002B0009B816115710571F1FB0193838283FE01BE
:1002C00011C0408151810281138148175907F8F00C
:1002D0004817590799F4109761F012960C931297EA
:1002E00013961C933296CF01DF91CF911F910F91FE
:1002F00008950093110310931203F4CF21153105D3
:1003000019F04217530718F49A01BD01EF01DF01FC
:10031000F801C2CF9093120380931103D0CFFE0156
:10032000E20FF31F8193919322503109398328837F
:10033000DACF20910F0330911003232B41F4209149
:100340000202309103023093100320930F03209197
:100350000002309101022115310541F42DB73EB75D
:100360004091040250910502241B350BE0910F03CC
:10037000F0911003E217F307A0F42E1B3F0B281790
:10038000390778F0AC014E5F5F4F2417350748F00E
:100390004E0F5F1F5093100340930F03819391936F
:1003A000A2CFF0E0E0E09FCFCF93DF930097E9F09A
:1003B000FC01329713821282C0911103D091120373
:1003C000DE0130E020E02097A1F420813181820F0E
:1003D000931F20910F03309110032817390709F05C
:1003E00067C0F0931003E0930F03DF91CF9108955E
:1003F000DA01AE17BF0708F040C012964D915C912C
:1004000013979D014115510599F7D9011396FC9356
:10041000EE9312974D915D91A40FB51FEA17FB075C
:1004200079F4808191810296840F951FD9011196EC
:100430009C938E938281938113969C938E931297B3
:10044000B0E0A0E08A819B810097B9F5FE0181911F
:100450009191E80FF91F80910F03909110038E176F
:100460009F0719F6109761F510921203109211036D
:10047000D0931003C0930F03B8CFB383A2834081FE
:100480005181840F951FA817B90771F44E5F5F4F14
:100490008D919C911197480F591F5183408312965B
:1004A0008D919C91938382832115310509F0ADCF05
:1004B000F0931203E093110398CFDE01EC01C2CF59
:0E04C00013961C921E921297D3CFF894FFCF82
:0E04CE0000001303200001414141000D0A000F
:00000001FF
